:020000040800F2
:10000000F007002029020008BF1E0008651C000838
:10001000BD1E00081F040008352500080000000070
:10002000000000000000000000000000051F0008A4
:100030003904000800000000C11E0008071F000866
:10004000430200084302000843020008430200087C
:10005000430200084302000843020008430200086C
:10006000430200084302000843020008430200085C
:10007000430200084302000843020008430200084C
:10008000430200084302000843020008430200083C
:10009000210400084302000843020008430200084C
:1000A000430200084302000843020008430200081C
:1000B000430200084302000843020008430200080C
:1000C00043020008430200084302000843020008FC
:1000D000430200081D2500084302000843020008EF
:1000E00043020008430200084302000843020008DC
:1000F00043020008430200084302000843020008CC
:1001000043020008430200084302000843020008BB
:100110004302000843020008991F00084302000838
:10012000430200084302000843020008430200089B
:10013000430200084302000843020008430200088B
:10014000430200082D04000843020008430200088F
:100150004302000843020008430200082925000862
:10016000430200084302000843020008430200085B
:100170004302000843020008430200080000000098
:10018000430200084302000800F002F800F03CF8C7
:100190000AA090E8000C82448344AAF10107DA45E2
:1001A00001D100F031F8AFF2090EBAE80F0013F0F8
:1001B000010F18BFFB1A43F0010318475824000031
:1001C00078240000103A24BF78C878C1FAD85207C2
:1001D00024BF30C830C144BF04680C6070470000C1
:1001E0000023002400250026103A28BF78C1FBD840
:1001F000520728BF30C148BF0B6070471FB502F0DF
:10020000F7F91FBD10B510BD00F0CFF81146FFF78C
:10021000F5FF02F0BFF900F0EDF803B4FFF7F2FFCD
:1002200003BC00F0F5F80000094880470948004782
:10023000FEE7FEE7FEE7FEE7FEE7FEE7FEE7FEE796
:10024000FEE7FEE704480549054A064B70470000F3
:10025000891F000889010008F0010020F007002034
:10026000F0030020F003002053EA020C00F0698044
:100270002DE9F04B4FF00006002B1FBFB3FA83F5BA
:1002800003FA05F424FA05F65E4012BF1643B2FAEB
:1002900082F502FA05F4C5F120051EBF22FA05FC1D
:1002A00044EA0C04203556EA044C4FEA144418BFC3
:1002B000641C4FF000084FF00009904271EB030CF2
:1002C00039D3002919BFB1FA81F701FA07F6B0FA5C
:1002D00080F700FA07F6C7F120071EBF20FA07FCD7
:1002E00046EA0C062037B6FBF4FCA7EB0507103FE7
:1002F00007F01F0BCBF120060CFA0BFB2CFA06F6CD
:1003000044BFB3460026202FA4BF5E464FF0000B2B
:100310005BEA060C08BF4FF0010B19EB0B09ABFBB6
:10032000027C48EB0608C01B06FB02CC0BFB03CC8F
:1003300071EB0C01C1E70B46024641464846BDE859
:10034000F08B13B54FF000004FF00001AFF30080C9
:10035000BDE81C4070474FF0000200B513469446BC
:100360009646203922BFA0E80C50A0E80C50B1F10D
:100370002001BFF4F7AF090728BFA0E80C5048BF21
:100380000CC05DF804EB890028BF40F8042B08BFBF
:10039000704748BF20F8022B11F0804F18BF00F8BB
:1003A000012B7047704770477047754600F02CF876
:1003B000AE4605006946534620F00700854618B052
:1003C00020B5FFF73FFFBDE820404FF000064FF09B
:1003D00000074FF000084FF0000B21F00701AC467A
:1003E000ACE8C009ACE8C009ACE8C009ACE8C00999
:1003F0008D46704710B50446AFF300802046BDE837
:100400001040FFF70ABF0000004870478C01002031
:1004100001491820ABBEFEE7260002007047FEE748
:10042000014800F00DB800001C000020014800F059
:1004300007B8000044000020704772B6FEE770471E
:100440002DE9F05F0546006800244669D0F8049065
:100450008768D0F80CB0D0F810A0D0F81880F10759
:1004600048D0F90714D001218160B80703D5284688
:1004700000F025FA0CE0780702D54FF4006407E09D
:10048000380702D54FF4805402E0284600F016FAEF
:10049000F80516D529684FF480708860B80503D533
:1004A000284600F00EFA0CE0780502D544F400541A
:1004B00007E0380502D544F4804402E0284600F005
:1004C000FFF9F80316D529684FF480308860B80327
:1004D00003D5284600F0F7F90CE0780302D544F480
:1004E000004407E0380302D544F4803402E0284693
:1004F00000F0E8F9300707D55FEACB6004D529683A
:10050000102044F40074C86070074FF0080707D546
:100510005FEA0B7004D52868C760284600F09CF994
:10052000B00706D52868C068800702D0284600F0CA
:1005300094F9700607D55FEACA6004D529681020CF
:1005400044F480640861B00607D55FEA0A7004D5F8
:1005500028680761284600F081F9F00606D528686A
:100560000069800702D0284600F079F9B00308D569
:100570005FEAC96005D5296810204860284600F068
:100580006FF9F00307D55FEA097004D52868476062
:10059000284600F099F9300446D55FEA497040D505
:1005A000F00504D55FEAC87001D044F00104B0053D
:1005B00004D55FEA887001D544F00204700504D5C3
:1005C0005FEA487001D544F00404300529D518F0DD
:1005D000700F26D008F07000402815D006DC1028D7
:1005E00009D020280AD0302816D10AE050280ED091
:1005F000602811D10EE044F008040DE044F010042E
:100600000AE044F0200407E044F0400404E044F031
:10061000800401E044F480742868816921F070014D
:100620008161296804204860002C05D0686A204355
:1006300068622846FFF703FFBDE8F09F70B504002D
:1006400003D094F8200010B104E0012070BD2046D2
:1006500000F082F82068016841F00101016000F0BB
:1006600099FA0546052604E000F094FA401B0A2892
:1006700011D820684068C007F6D02068016821F0D2
:100680000201016000F086FA05460BE000F082FAF4
:10069000401B0A2806D9606A40F40030606284F882
:1006A0002060D2E7206840688007EFD4207E0128D0
:1006B000206801683DD021F080010160607E012842
:1006C0002068016838D021F040010160A07E012837
:1006D0002068016833D021F020010160E07E01280C
:1006E000206801682ED041F010010160207F0128B0
:1006F0002068016829D021F008010160607F01288D
:100700002068016824D021F004010160D4E90201CD
:100710000843D4E90412114308436168491E0843A1
:100720002168C86100206062012084F82000002058
:1007300070BD41F08001C0E741F04001C5E741F0E4
:100740002001CAE721F01001CFE741F00801D4E70A
:1007500041F00401D9E700002DE9F04387B00446D9
:1007600014216846FFF7F7FDD4F800C0364C37492E
:10077000DFF8D0802268354B02250326092734484C
:100780001031521C4FF00009C44524D12260012AC7
:1007900007D10A6842F000720A60096801F000712E
:1007A0000591196841F002011960196802AA01F067
:1007B000020105914FF44071CDE90015012182E855
:1007C000C200694600F0EEF801221146142000F044
:1007D00051FA142030E0DFF87C80C4452ED1D1F8E6
:1007E00000C04CF0806CC1F800C0D1F800C0012AF4
:1007F0000CF0806CCDF814C0226007D10A6842F07A
:1008000000720A60096801F000710591196841F0F1
:1008100002011960196801F00201059160218DE85B
:1008200022026946CDE9036700F0BCF801221146B7
:10083000412000F01FFA412000F00EFA07B0BDE899
:10084000F0830000006400400000002030380240C7
:1008500000040240006800407047704770477047CE
:100860007047000070B5044690F82000012804D0BD
:10087000606A40F40020606218E0022084F82000E2
:100880002068016821F00101016000F083F905464C
:100890000EE000BF00F07EF9401B0A2808D9606A0C
:1008A00040F400306062052084F82000012070BD13
:1008B00020684068C007EDD1606270BD7047704726
:1008C000704770477047704770472DE9F041044604
:1008D000876D00F05FF9064694F835000025022880
:1008E00006D08020606584F834500120BDE8F08196
:1008F0002068016821F0160101602068416921F03B
:1009000080014161206C08B9A06C20B120680168A9
:1009100021F0080101602068016821F001010160F7
:100920000CE000F037F9801B052807D9202060650E
:10093000032084F8350084F83450D7E72068006835
:10094000C007EED194F85C103F208840B8600120C9
:1009500084F8350084F834500020C7E790F835104B
:10096000022903D08021416501207047052180F8CC
:1009700035100068016821F0010101600020704716
:1009800070B5044600F006F90546601C02D0044824
:100990000078044400F0FEF8401BA042FAD370BD7A
:1009A000040000202DE9F84FDFF8BCA1002201254A
:1009B00003264FF00F090AF1040BAAF1040E00BF41
:1009C0000B6805FA02F42340A34270D10F7907F0B7
:1009D0000307012F01D0022F16D187684FEA420882
:1009E00006FA08FC27EA0C07D1F80CC00CFA08FC40
:1009F0004CEA070CC0F808C04768A7430C79C4F359
:100A0000001494403C4344600C79E443A4070AD0AA
:100A1000C4684FEA420C06FA0CF7BC438F6807FA29
:100A20000CF72743C7600C7904F00304022C12D1A1
:100A3000D40800EB840CDCF820405707FF0E09FABD
:100A400007F824EA0804D1F8108008FA07F848EA01
:100A50000408CCF8208004684FEA420C06FA0CF730
:100A6000BC430F7907F0030707FA0CF72743076029
:100A70004C6814F4403F70D03C4C276847F48047E2
:100A80002760246822F0030704F480440094384C63
:100A900007EB040CDCF8084897074FEA177809FAC7
:100AA00008F7BC43334FB84202D1002724E054E09A
:100AB000314FB84201D101271EE0304FB84201D179
:100AC000022719E02E4FB84201D1032714E02D4F21
:100AD000B84201D104270FE02B4FB84201D10527BE
:100AE0000AE02A4FB84201D1062705E0284FB84254
:100AF00001D1072700E0082707FA08F72743CCF8B9
:100B00000878DAF800405746D1F804C09C435FEA01
:100B1000CC2C00D51C433C60DBF800405F46D1F88C
:100B200004C09C435FEA8C2C00D51C433C60DEF87B
:100B300000407746D1F804C09C435FEA8C3C00D566
:100B40001C433C60084F083F3C68D1F804C09C43FC
:100B50005FEACC3C00D51C433C60521C102AFFF4D9
:100B60002FAFBDE8F88F0000083C01404438024038
:100B70000030014000000240000402400008024032
:100B8000000C024000100240001402400018024015
:100B9000001C0240014880687047000004000020EB
:100BA0000248816802781144816070470400002087
:100BB0000B4810B5016841F400710160016841F40F
:100BC00080610160016841F480710160032000F0E0
:100BD00071F8072000F006F800F024F8002010BD9E
:100BE000003C024070B50D4D04464FF47A712878F0
:100BF000B1FBF0F00A490968B1FBF0F000F00EFB20
:100C000048B9102C07D200222146501E00F032F8BD
:100C100000206C6070BD012070BD00000400002049
:100C2000100000200B4882B0016841F4804101604F
:100C3000006800F4804000900648001F016841F001
:100C400080510160006800F080500090042002B0E4
:100C500000F030B844380240002809DB00F01F02E1
:100C6000012191404009800000F1E020C0F800110E
:100C700070470000F0B40E4B1B680C46C3F3022310
:100C8000C3F10705042D00D90425191D072901D238
:100C9000002300E0DB1E012606FA05F1491E214073
:100CA00099409E40761E16403143F0BC01F043BC93
:100CB0000CED00E0064900F0070208684FF6FF035C
:100CC000184040EA0220034A1043086070470000C1
:100CD0000CED00E00000FA052DE9F0470E46050096
:100CE00065D0DFF81481D8F80000F7B200F00700F3
:100CF000B04207D288F80070D8F8000000F0070072
:100D0000B04254D128683D4C810712D5400703D525
:100D1000206840F4E05020602878000703D5206860
:100D200040F4604020602068A96820F0F00008438B
:100D300020602878C0072DD030496868083901281C
:100D400012D0022813D0032811D00968890700297E
:100D50002DDA216821F0030101432160FFF71AFF1A
:100D6000814641F2883A0EE009688903EFE7096895
:100D70008901ECE7FFF70EFFA0EB0901514502D90D
:100D80000320BDE8F0872068696800F00C00B0EB34
:100D9000810FEFD1D8F80010404601F00701B142B1
:100DA00007D90770006800F00700B04201D00120A9
:100DB000E7E72878400705D52068E96820F4E05087
:100DC000084320602878000706D52068296920F4A8
:100DD000604040EAC100206000F038F82168084A0D
:100DE000C1F30311515CC840064908600648006819
:100DF000FFF7F8FE0020C4E7003C0240083802403C
:100E0000FA250008100000200800002004480549C9
:100E100000680968044AC1F38221515CC8407047E8
:100E200010000020083802400A260008044805493E
:100E300000680968044AC1F34231515CC8407047F8
:100E400010000020083802400A260008154810B596
:100E5000006810F00C02144813D01449042A0FD073
:100E6000082A0ED10F4C241F2268236802F03F028B
:100E70005B0207D52068C0F38810A0FB010106E0E3
:100E8000084610BD2168C1F38811A1FB00010023B1
:100E9000FFF7EAF92168C1F30141491C4900B0FBA1
:100EA000F1F010BD083802400024F40040787D01C4
:100EB0002DE9F84F04006ED02078DFF84C93C0077E
:100EC000A9F104054AD009F104000168C1F38101C8
:100ED000012908D00068C0F3810002280AD1D9F89E
:100EE0000000400206D52868800337D560680028D6
:100EF000E1D033E06068B0F5803F10D0B0F5A02FAE
:100F0000286810D020F480302860286820F48020E1
:100F100028606068A8B1FFF73DFE06460DE028682E
:100F200040F48030F4E740F480202860F7E700BF09
:100F3000FFF730FE801B642873D828688003F7D53C
:100F40000CE0FFF727FE064605E000BFFFF722FE94
:100F5000801B6428F0D828688003F7D42078DFF855
:100F6000AC8280074FF0000A3ED5A748001D0168FB
:100F700011F00C0F08D00068C0F3810002280BD1DB
:100F8000D9F80000400207D42868800716D5E06829
:100F9000012800D112E033E1E068B8B10120C8F8BF
:100FA0000000FFF7F7FD064605E000BFFFF7F2FD82
:100FB000801B0228C0D828688007F7D528682169D7
:100FC00020F0F80040EAC10028600DE0C8F800A059
:100FD000FFF7E0FD064604E0FFF7DCFD801B02287A
:100FE0001FD828688007F7D42078000722D5864FBD
:100FF00087486169703771B101210160FFF7CAFD4F
:10100000064604E0FFF7C6FD801B022809D83868B1
:101010008007F7D50EE0C0F800A0FFF7BBFD06463D
:1010200005E082E0FFF7B6FD801B02287DD8386816
:101030008007F7D42078400768D5DFF8CCB10027C7
:101040000BF13C0BDBF80000C0000BD4DBF8001008
:1010500041F08051CBF80010DBF80000012700F0D0
:10106000805000906B4E3068C00510D4306840F45A
:1010700080703060FFF78EFD009005E0FFF78AFD7D
:101080000099401A022850D83068C005F6D55E4E47
:10109000A0686C3601280FD00528306810D020F0E9
:1010A00001003060306820F004003060A068B8B102
:1010B000FFF770FD00900FE0306840F00100F4E7AA
:1010C00040F004003060F7E7FFF764FD0099411A33
:1010D00041F28830814266D830688007F4D50EE04E
:1010E000FFF758FD009007E0FFF754FD0099411A03
:1010F00041F28830814256D830688007F4D42FB14D
:10110000DBF8001021F08051CBF80010A069C8B3C3
:101110003D49091D0968C1F3810102294AD002280D
:10112000504607D0C8F8600000E03CE0FFF732FD11
:1011300004463BE04746C8F86000FFF72BFD064633
:1011400005E000BFFFF726FD801B02282BD828688A
:101150008001F7D4D4E907010843A16A2E4A49085F
:1011600002EB0141626A41EA8211084394F82C10B3
:1011700040EA0161C9F8001001203866FFF70AFD56
:10118000044606E03EE000BFFFF704FD001B022816
:1011900009D828688001F7D534E000BFFFF7FAFCD2
:1011A000001B022802D90320BDE8F88F28688001BF
:1011B000F4D427E00128F7D0D9F80000E26900F460
:1011C000800191421CD1226A00F03F01914217D167
:1011D00047F6C071626A0140B1EB821F10D1A26A6A
:1011E0004FF0FF3300F4403103EB5202B1EB024FFA
:1011F00006D194F82C1000F07060B0EB016F01D0B4
:101200000120D1E70020CFE7043802400000474228
:10121000800E4742007000400000FFFF10B5401EE6
:10122000B0F1807F01D3012010BD4FF0E024606158
:101230000F21601701F07FF90020A06107202061D5
:10124000002010BD7047704770B590F83C20012A0F
:1012500032D0012480F83C40022280F83D2003680F
:101260005A689D6822F070060A6832435A60134B30
:1012700002689A4214D0B2F1804F11D0104B9A42BA
:101280000ED0104B9A420BD00F4B9A4208D00F4B06
:101290009A4205D00E4B9A4202D00E4B9A4204D18C
:1012A000496825F080031943916080F83D40002192
:1012B00080F83C10084670BD022070BD000001405F
:1012C0000004004000080040000C00400004014001
:1012D000004001400018004010B5040003D094F80D
:1012E0003D0010B107E0012010BD002084F83C0053
:1012F000204600F01FF8022084F83D00211D2068E0
:1013000000F050FE012084F8460084F83E0084F886
:101310003F0084F8400084F8410084F8420084F8DB
:10132000430084F8440084F8450084F83D00002020
:1013300010BD000008B5114A01681148914208D15A
:10134000016841F008010160006800F008000090A9
:1013500008BD0C4A9142FBD1016841F010010160C7
:101360000068002200F01000009011463620FFF7C0
:1013700081FCBDE808403620FFF76EBC000C004041
:10138000403802400010004070B5044690F83C0020
:101390000025012817D0012684F83C60022084F83B
:1013A0003D002068826822F0770222F47F4282604A
:1013B0000868502838D00DDC20284FD005DC90B3C9
:1013C000102811D14AE0022070BD302846D04028B4
:1013D0000AD13BE060282FD070280DD0B0F5805F97
:1013E00003D0B0F5005F12D0012584F83D600020E5
:1013F00084F83C00284670BDCB68D1E90121206803
:1014000000F045FE2068816841F0770109E0CB6873
:10141000D1E90121206800F03AFE2068816841F49A
:1014200080418160E1E719E0CA684968206800F0FE
:1014300003FF5021206806E0CA684968206800F070
:101440000CFF6021206800F02CFECEE7CA684968D6
:10145000206800F0F1FE40212068F4E72268014690
:101460001046F0E770472DE9F04104460068C66871
:1014700005694FF00007A90713D5B10711D5F91E6B
:10148000016101202077206880698007204602D012
:10149000FFF7E8FF04E000F0A9F8204600F03BF970
:1014A0002777680716D5700714D521686FF00400F8
:1014B0000861022020772068806910F4407F204670
:1014C00002D0FFF7CFFF04E000F090F8204600F0D4
:1014D00022F92777280715D5300713D521686FF033
:1014E00008000861042020772068C0698007204632
:1014F00002D0FFF7B7FF04E000F078F8204600F0D4
:101500000AF92777E80616D5F00614D521686FF09A
:1015100010000861082020772068C06910F4407F1F
:10152000204602D0FFF79EFF04E000F05FF820465F
:1015300000F0F1F82777E80708D0F00706D0216817
:101540006FF001000861204600F04AF9280608D52E
:10155000300606D521686FF0800008612046FFF74D
:1015600071FE680608D5700606D521686FF0400048
:101570000861204600F035F9A8060AD5B00608D55E
:1015800021686FF0200008612046BDE8F041FFF7B8
:101590005ABEBDE8F081000010B586B004461421A3
:1015A0006846FEF7D8FE0E492068884215D10D48DE
:1015B0000021026842F080020260006800F08000B2
:1015C00005904FF4E05000900220CDE90101CDE9F3
:1015D000031069460448FFF7E5F906B010BD0000A6
:1015E000000C004030380240001C0240704770B5CB
:1015F000044690F83C0000260D4601280FD001203B
:1016000084F83C006AB1042A1DD0082A2FD00C2A85
:101610003FD00126002084F83C00304670BD0220F7
:1016200070BD206800F046FD2068816941F0080126
:1016300081612068816921F00401816120688169EC
:101640002A69114311E0206800F064FD2068816977
:1016500041F4006181612068816921F480618161C8
:10166000206881692A6941EA02218161D2E7206804
:1016700000F086FD2068C16941F00801C161206861
:10168000C16921F00401C1612068C1692A6911435F
:1016900011E0206800F0A8FD2068C16941F40061F4
:1016A000C1612068C16921F48061C1612068C1699C
:1016B0002A6941EA0221C161ACE710B5040003D0F8
:1016C00094F83D0010B107E0012010BD002084F81F
:1016D0003C00204600F01EF8022084F83D00211D49
:1016E000206800F05FFC012084F8460084F83E008A
:1016F00084F83F0084F8400084F8410084F84200F8
:1017000084F8430084F8440084F8450084F83D00E0
:10171000002010BD7047704710B50446022249B141
:1017200004290ED0082913D094F84100012816D0BE
:10173000012010BD94F83E000128F9D184F83E2024
:101740000FE094F83F000128F2D184F83F2008E030
:1017500094F840000128EBD184F8402001E084F89F
:1017600041200122206800F085FC16492068164AB5
:10177000884201D0904203D1436C43F40043436458
:101780002068884213D0B0F1804F10D00F498842B2
:101790000DD00F4988420AD00E49884207D09042A6
:1017A00005D00D49884202D00C49884204D1816895
:1017B00001F00701062903D0016841F00101016031
:1017C000002010BD00000140000401400004004062
:1017D00000080040000C004000400140001800409C
:1017E0007047704770477047F8B50168044608684D
:1017F000CA684B6910F00F0F4FF0000559D003F085
:10180000010602F49077374365D0C10705D0D105B2
:1018100003D5616C41F001016164410705D5D90729
:1018200003D0616C41F002016164810705D5D907DD
:1018300003D0616C41F004016164010707D502F037
:101840002001314303D0616C41F008016164616C97
:1018500000293AD0800604D5900602D5204600F033
:101860003CFD20684069616CC0F38010090700D41A
:1018700060B3204600F00AFD20684069400621D58B
:101880002068143050E8001F21F0400140E80012A9
:10189000002AF5D1E06BA8B172490165E06BFFF752
:1018A0005DF8002811D0E06B016D01B0BDE8F0409B
:1018B000084783060FD593060DD52046BDE8F840AE
:1018C00000F00BBD2046FFF78EFFF8BD2046FFF766
:1018D0008AFF6564F8BD266B2023012E7ED1C606E3
:1018E0007CD5D6067AD508684868009048694FF0DC
:1018F000020640064DD5E26B106840684FF48077D1
:101900000004000C3AD0A18D814237D9E085D0691E
:10191000B8422DD020680C3050E8001F21F48071AF
:1019200040E80012002AF5D12068143050E8001F6A
:1019300021F0010140E80012002AF5D1206814309E
:1019400050E8001F21F0400140E80012002AF5D1C4
:1019500084F84230256320680C3050E8001F21F0E5
:10196000100140E80012002AF5D1E06BFEF7ADFF50
:101970006663A08DE18D401A81B206E0A18D81429F
:10198000A8D1D069B842A5D166632046FFF72AFFE7
:10199000F8BDA08DE18D401A81B2E08D0028F7D00E
:1019A0000029F5D020680C3050E8002F22F4907206
:1019B00040E80027002FF5D12068143050E8002FB0
:1019C00022F0010240E80027002FF5D184F84230D0
:1019D000256320680C3050E8002F00E006E022F07C
:1019E000100240E80023002BF3D1CDE705062BD5EC
:1019F000150629D594F841002128C9D1A068B0F571
:101A0000805F01D12069B0B1206A411C2162216848
:101A100000784860E08C401E0004000CE084B7D1E0
:101A20002068C16821F08001C1602068C16841F070
:101A30004001C160F8BD206A0088C0F3080048601A
:101A4000206A801C2062E5E74006F3D55006F1D5F8
:101A5000CA68204622F04002CA6084F8413000F093
:101A600000F9F8BD7F22000870B5040004D094F896
:101A70004100002510B106E0012070BD84F84050FF
:101A8000204600F023F8242084F841002068C16833
:101A900021F40051C160204600F080FC20680169FB
:101AA00021F4904101612068416921F02A014161DE
:101AB0002068C16841F40051C1606564202084F849
:101AC000410084F842006563002070BDF0B587B026
:101AD000044614216846FEF73EFC3448324B226827
:101AE000002432491438022503269A4233D10A6869
:101AF00042F010020A60096801F0100105910168C6
:101B000041F002010160016801F0020105910168E4
:101B100041F001010160006802AA00F00100059097
:101B20008020CDE90005072782E8D00069462048DB
:101B3000FEF738FF2802CDE9000502AA694682E8CF
:101B4000D0001C48FEF72EFF002211462520FFF78B
:101B500091F8252024E0184B9A4223D10A6842F0DC
:101B600020020A60096801F020010591016841F036
:101B7000400101600068029400F0400005904FF4BD
:101B80008440CDE900050820CDE9036069460B4893
:101B9000FEF708FF002211464720FFF76BF84720A9
:101BA000FFF75AF807B0F0BD00100140443802407A
:101BB00000040240000002400014014000180240EE
:101BC00070472DE9F843044690F8410098461646C0
:101BD0000D46202802D00220BDE8F88385B17EB1F1
:101BE00000206064212084F84100FEF7D3FFA68422
:101BF0008146E684A0682027B0F5805F02D003E02C
:101C00000120E9E7206910B12E4600250EE00026EC
:101C10000CE08021204600F047FCA8B9C6B116F8B8
:101C2000010B21684860E08C401EE084E08C4B464C
:101C30004FF00002CDF800800028EAD14FF04001BB
:101C4000204600F031FC40B184F841700320C3E726
:101C500035F8020BC0F30800E3E784F84170002078
:101C6000BAE77047FEE70000114810B50F49016060
:101C7000032141604FF08041816000214FF4102228
:101C8000C0E903124FF4001242610176012242764C
:101C90008276C27601774177FEF7D0FC002803D028
:101CA000BDE81040FEF7C9BB10BD00000064004055
:101CB0001C000020114810B50F490160032141604C
:101CC0004FF08041816000214FF41022C0E90312DF
:101CD0004FF4001242610176012242768276C2768A
:101CE00001774177FEF7AAFC002803D0BDE8104039
:101CF000FEF7A3BB10BD00000068004044000020B8
:101D0000114808B5016841F002010160016801F065
:101D100002010091016841F040010160016801F099
:101D200040010091016841F001010160016801F08A
:101D300001010091016841F080010160006800F03C
:101D40008000009008BD00003038024010B58EB011
:101D500000240794089409940A940B941C21684663
:101D60000C94FEF7F8FA26482449C0E900144FF60F
:101D7000FF71C0E9024104618461FFF7ADFA08B167
:101D8000FEF75BFB4FF48050079007A91C48FFF754
:101D9000FBFA08B1FEF751FB1948FFF78EFC08B1BA
:101DA000FEF74BFB0B940BA915480C94FFF74CFA6C
:101DB00008B1FEF742FB6020CDE900040294002246
:101DC00069460F480494FFF712FC08B1FEF735FB93
:101DD000042269460A48FFF70AFC08B1FEF72DFB0A
:101DE000082269460648FFF702FC08B1FEF725FB0A
:101DF0000348FFF7D1FB0EB010BD0000000C0040FF
:101E00006C0000201CB500240F4800940D4901947B
:101E1000016040F24F11C0E9011440F2F3118461F6
:101E2000C160FFF759FA08B1FEF707FB0094694655
:101E300005480194FFF708FA002801D0FEF7FDFAE3
:101E40001CBD000000100040B40000200C4810B57C
:101E50000A4901604FF4E1314160002181600C22A8
:101E6000C160C0E904128161C161FFF7FDFD002876
:101E700003D0BDE81040FEF7E0BA10BD00100140ED
:101E8000FC0000200C4810B50A4901604FF4E13114
:101E90004160002181600C22C160C0E904128161AF
:101EA000C161FFF7E1FD002803D0BDE81040FEF757
:101EB000C4BA10BD0014014044010020FEE7FEE753
:101EC0007047000010B500210848FFF725FC0421E9
:101ED0000648FFF721FC08210448FFF71DFCBDE878
:101EE00010404FF07F4000F037BB00006C00002036
:101EF00003480068C16B4FF60162511AC163704715
:101F00006C0000207047FEF74BBE000010B592B089
:101F100030216846FEF71FFA14210CA8FEF71BFAC1
:101F200017480024016841F080510160006800F00A
:101F3000805011901348016841F4804101600068AD
:101F4000069400F48040119002200090012003903C
:101F5000102004906846FEF7ABFF08B172B6FEE7AA
:101F60000F20CDE90C040E940F9400210CA81094BE
:101F7000FEF7B2FE002801D072B6FEE712B010BD27
:101F800040380240007000400248016841F470018E
:101F90000160704788ED00E00148FFF764BA000077
:101FA000B4000020F0B50268274B284D284E294F79
:101FB000294C4FF0804C984209D0604507D0A84288
:101FC00005D0B04203D0B84201D0A04204D122F0E3
:101FD000700E4A6842EA0E0298421BD0604519D042
:101FE000A84217D0B04215D0B84213D0A04211D0A9
:101FF0001A4DA8420ED01A4DA8420BD0194DA84236
:1020000008D0194DA84205D0184DA84202D0184D4D
:10201000A84203D122F44075CA682A434D6922F0D0
:1020200080022A438D68C5620D688562984201D09E
:10203000A04201D109690163016841F00401016016
:10204000012141610260F0BD000001400004004038
:1020500000080040000C0040000401400040014026
:10206000004401400048014000180040001C0040AE
:102070000020004010B501F01F030121046A9940BF
:102080008C430462016A9A401143016210BD10B58D
:10209000846842EA032224F47F440A432243826094
:1020A00010BD826822F070020A4342F0070181608D
:1020B00070470000F0B5036A026A22F00102026272
:1020C00042688469124E24F073050C682C4323F097
:1020D00002058B682B430D4DA84201D0B04205D1BB
:1020E00023F00807CB683B4323F00403A84201D048
:1020F000B04205D14D6922F4407215438A692A43E2
:1021000042608461496841630362F0BD00000140A0
:1021100000040140F0B5026A036A23F01003036271
:10212000436884690D6824F4E64444EA05248D6814
:1021300022F0200242EA05120F4D104EA84201D0B3
:10214000B04206D1CF6822F0800242EA071222F0A4
:102150004002A84201D0B04207D14D6923F4406348
:1021600043EA85038D6943EA8503436084614968D6
:1021700081630262F0BD00000000014000040140E4
:10218000F0B5026A036A23F4807303624368C4698A
:1021900022F4007224F073050C68124E2C438D68F3
:1021A00042EA05220E4DA84201D0B04206D1CF68C6
:1021B00022F4006242EA072222F48062A84201D09F
:1021C000B04207D14D6923F4405343EA05138D69AA
:1021D00043EA05134360C4614968C1630262F0BD0C
:1021E000000001400004014030B5046A026A22F494
:1021F000805202624268C3690D6823F4E64343EAF1
:1022000005238D6824F4005444EA0534084DA8429F
:1022100002D0084DA84204D14D6922F4804242EA1E
:1022200085124260C36149680164046230BD0000E8
:10223000000001400004014010B5036A046A24F064
:1022400001040462846924F0F00444EA021423F0D7
:102250000A020A438461026210BD10B5036A046A6F
:1022600024F010040462846923F0A00324F4704471
:1022700044EA023243EA01118261016210BD10B5E5
:10228000806B0021C185FFF7AEFA10BD01680C31EB
:1022900051E8002F22F4907241E80023002BF5D181
:1022A0000168143151E8002F22F0010241E80023B7
:1022B000002BF5D1016B012909D101680C3151E8DE
:1022C000002F22F0100241E80023002BF5D120213D
:1022D00080F8421000210163704708B590F8421061
:1022E000222901D0022008BD82684FF480539A420F
:1022F00001D1016921B1816A9A421BD04AB10AE039
:102300000268816A5268C2F308020A80816A891CE5
:1023100008E0026972B10268526802F07F020A7036
:10232000816A491C8162C18D491E0904090CC1855D
:1023300003D01BE002685268F1E70168CA6822F026
:102340002002CA600168CA6822F48072CA6001680B
:102350004A6922F001024A61202180F842100021DE
:102360004163026B012A03D0FFF72AFC002008BD5D
:10237000016301680C3151E8002F22F0100241E89E
:102380000023002BF5D101680A68D20602D50A683D
:1023900049680091818DFFF725FAE7E770B504469B
:1023A00000680169E26821F440511143016121692B
:1023B000A068E26908436169114308432168CA685B
:1023C00049F20C639A430243CA6020684169A269DA
:1023D00021F440711143416131492068884202D0A3
:1023E0003049884202D1FEF721FD01E0FEF70EFDE3
:1023F000E2690023192164253226B2F5004F626894
:1024000028D0A0FB0101930F9200FDF72DFF01469C
:10241000B0FBF5F06FF01802504301EB800006EBC3
:102420000010B0FBF5F000F0F002B1FBF5F002EBAC
:102430000012B1FBF5F06FF01803584301EB800078
:1024400006EB0010B0FBF5F000F00F00216810441F
:10245000886070BDA0FB010192185B41FDF704FF8D
:102460000146B0FBF5F00201B1FBF5F06FF0180387
:10247000584301EB800006EBC000B0FBF5F000F024
:10248000F80002EB4002B1FBF5F0584301EB80008D
:1024900006EBC000B0FBF5F000F00700D6E7000047
:1024A00000100140001401402DE9F84398461746FA
:1024B0000D460446089E24E0701C22D0FEF76AFBFD
:1024C000A0EB0800B0421AD8CEB12068C168490715
:1024D00017D5802D15D0402D13D00168C9430907A9
:1024E0000FD401680025406800902046FFF7CEFE1B
:1024F0000820606484F840500120BDE8F883032080
:10250000FBE72068006835EA000004D00020B842EC
:10251000D2D00020F1E70120F9E700000148FFF7E1
:1025200063B90000FC0000200148FFF75DB900001E
:1025300044010020FEE70907090E002804DB00F132
:10254000E02080F80014704700F00F0000F1E02058
:1025500080F8141D704700000C4910B5020E0A7077
:10256000C0F3074313FB02F34B80C0F3072414FBB3
:1025700002F48C80C0B210FB02F20548CA800168E8
:102580004A6301688C630068C36310BD14000020B7
:102590006C000020FEF70CFBFFF7B8FCFFF7B0FB68
:1025A000FFF762FBFFF786FBFFF750FCFFF76AFCC3
:1025B000FFF728FCFFF7CAFB0A48FEF753F90A4861
:1025C000FEF750F9FFF77EFC4FF47A74FFF790FCAA
:1025D0006423012255210548FFF7F3FA2046FEF750
:1025E000CFF9F3E71C00002044000020FC0000208D
:1025F0004FF04070E1EE100A70470000000000004C
:10260000000001020304060708090000000001029F
:102610000304000034260008000000201C00000015
:10262000C4010008502600081C000020D407000048
:10263000E0010008000000000100000010000000A0
:10264000000000000024F400000000000000000072
:040000050800018965
:00000001FF
